S018000073656C662064726976696E67206361722E73726563F9
S11300000C942A000C9490010C943C000C943C0039
S11300100C943C000C943C000C943C000C943C006C
S11300200C943C000C943C000C943C000C94F601A1
S11300300C943C000C943C000C943C000C943C004C
S11300400C943C000C943C000C943C000C943C003C
S11300500C943C0011241FBECFE5D8E0DEBFCDBF19
S113006020E0A0E6B0E001C01D92A936B207E1F796
S11300700E943E000C9464030C9400000E94B8009B
S11300800E946D010E9451000E9469010E94720148
S113009041E065E083E00E941B028AE00E940903BC
S11300A0FFCF41E064E083E00E941B0241E067E08F
S11300B083E00E941B0241E063E082E00E941B0295
S11300C041E064E082E00E941B0241E065E082E0DE
S11300D00E941B0241E066E082E00E941B02089538
S11300E0CF93C82F40E061E081E00E948C0240E0A1
S11300F062E081E00E948C0240E063E081E00E94C3
S11301008C028FE99FE00197F1F700C0000041E005
S113011063E081E00E948C028BB39C2F907F8F70F0
S1130120892B8BBB40E063E081E00E948C028FE36B
S11301309FE10197F1F700C0000041E063E081E036
S11301400E948C022BB330E1C39FC0011124922F73
S11301509F70892B8BBB40E063E081E00E948C029E
S11301608FE99FE00197F1F700C00000CF91089557
S113017041E061E081E00E941B0241E062E081E035
S11301800E941B0241E063E081E00E941B0241E007
S113019064E080E00E941B0241E065E080E00E9490
S11301A01B0241E066E080E00E941B0241E067E040
S11301B080E00E941B028FE59AEE0197F1F700C0E0
S11301C0000083E30E9470008FE99FE00197F1F73C
S11301D000C0000082E30E9470008FE99FE0019755
S11301E0F1F700C0000088E20E9470008FE99FE0F0
S11301F00197F1F700C000008CE00E9470008FE9C5
S11302009FE00197F1F700C0000081E00E947000B8
S11302108FE39FE10197F1F700C0000082E00E94A4
S113022070008FE39FE10197F1F700C0000086E0C2
S11302300E9470008FE99FE00197F1F700C0000071
S11302400895CF93C82F40E061E081E00E948C02C2
S113025040E062E081E00E948C0240E063E081E0E3
S11302600E948C028BB39C2F907F8F70892B8BBB49
S113027041E063E081E00E948C028FE99FE00197F6
S1130280F1F700C0000040E063E081E00E948C02CE
S11302902BB330E1C39FC0011124922F9F70892B8F
S11302A08BBB41E063E081E00E948C028FE99FE018
S11302B00197F1F700C0000040E063E081E00E9494
S11302C08C028FE19EE40197F1F700C00000CF910A
S11302D0089581E00E94210108950E94F9020E947C
S11302E00503089513BE83B7877F83BF83B78F7BCE
S11302F083BF81E083BF89B7816089BF789441E07F
S113030063E083E00E941B0240E062E083E00E941D
S11303101B028BB780648BBF85B7816085BF08954E
S11303201F920F920FB60F9211242F933F934F9366
S11303305F936F937F938F939F93AF93BF93EF9349
S1130340FF9380916400813009F03FC08091650083
S113035090916600019751F522B7809160009091C9
S11303606100A0916200B0916300BA2FA92F982F69
S11303708827BC01CD01620F711D811D911D22EDE5
S113038031E040E050E00E942E0330936800209357
S11303906700109260001092610010926200109247
S11303A0630010926600109265000FC012BE81E0D7
S11303B090E0909366008093650010926000109224
S11303C061001092620010926300FF91EF91BF915F
S11303D0AF919F918F917F916F915F914F913F91D9
S11303E02F910F900FBE0F901F9018951F920F9290
S11303F00FB60F9211248F939F93AF93BF93809165
S1130400600090916100A0916200B0916300019638
S1130410A11DB11D8093600090936100A0936200C0
S1130420B0936300BF91AF919F918F910F900FBED6
S11304300F901F901895442319F04130C9F1089585
S1130440813091F028F08230D9F0833029F1089579
S11304502AB381E090E002C0880F991F6A95E2F701
S1130460809582238ABB089527B381E090E002C07F
S1130470880F991F6A95E2F78095822387BB0895B8
S113048024B381E090E002C0880F991F6A95E2F7D7
S11304908095822384BB089521B381E090E002C05B
S11304A0880F991F6A95E2F78095822381BB08958E
S11304B0813089F028F08230C9F0833011F1089539
S11304C02AB381E090E002C0880F991F6A95E2F791
S11304D0822B8ABB089527B381E090E002C0880F85
S11304E0991F6A95E2F7822B87BB089524B381E0B4
S11304F090E002C0880F991F6A95E2F7822B84BBB3
S1130500089521B381E090E002C0880F991F6A9595
S1130510E2F7822B81BB0895813001F130F0823003
S1130520B1F1833009F44CC00895413059F42BB330
S113053081E090E002C0880F991F6A95E2F7822B50
S11305408BBB08952BB381E090E002C0880F991F04
S11305506A95E2F7809582238BBB0895413059F464
S113056028B381E090E002C0880F991F6A95E2F7F2
S1130570822B88BB089528B381E090E002C0880FE5
S1130580991F6A95E2F78095822388BB08954130CC
S113059059F425B381E090E002C0880F991F6A9551
S11305A0E2F7822B85BB089525B381E090E002C079
S11305B0880F991F6A95E2F78095822385BB089579
S11305C0413059F422B381E090E002C0880F991FB2
S11305D06A95E2F7822B82BB089522B381E090E012
S11305E002C0880F991F6A95E2F78095822382BB27
S11305F008958D9A8FB582608FBD8EB588618EBD4A
S113060081E792E097BD86BD08958EB584608EBD66
S1130610089521E732E0482F429FC001439F900D87
S1130620112464E670E00E941A03615071097BBDD5
S11306306ABD089597FB072E16F4009407D077FD42
S113064009D00E94500307FC05D03EF49095819593
S11306509F4F0895709561957F4F0895A1E21A2EDA
S1130660AA1BBB1BFD010DC0AA1FBB1FEE1FFF1F52
S1130670A217B307E407F50720F0A21BB30BE40BA2
S1130680F50B661F771F881F991F1A9469F76095E9
S11306907095809590959B01AC01BD01CF010895A3
S11306A0AA1BBB1B51E107C0AA1FBB1FA617B70794
S11306B010F0A61BB70B881F991F5A95A9F78095B0
S10F06C09095BC01CD010895F894FFCF83
S9030000FC
